:100000000C940038FFFFFFFFFFFFFFFFFFFFFFFF24
:10001000FFFFFFFFFFFFFFFFFFFFFFFFFFFFFFFFF0
:10002000FFFFFFFFFFFFFFFFFFFFFFFFFFFFFFFFE0
:10003000FFFFFFFFFFFFFFFFFFFFFFFFFFFFFFFFD0
:10004000FFFFFFFFFFFFFFFFFFFFFFFFFFFFFFFFC0
:10005000FFFFFFFFFFFFFFFFFFFFFFFFFFFFFFFFB0
:10006000FFFFFFFFFFFFFFFFFFFFFFFFFFFFFFFFA0
:10007000FFFFFFFFFFFFFFFFFFFFFFFFFFFFFFFF90
:10008000FFFFFFFFFFFFFFFFFFFFFFFFFFFFFFFF80
:10009000FFFFFFFFFFFFFFFFFFFFFFFFFFFFFFFF70
:1000A000FFFFFFFFFFFFFFFFFFFFFFFFFFFFFFFF60
:1000B000FFFFFFFFFFFFFFFFFFFFFFFFFFFFFFFF50
:1000C000FFFFFFFFFFFFFFFFFFFFFFFFFFFFFFFF40
:1000D000FFFFFFFFFFFFFFFFFFFFFFFFFFFFFFFF30
:1000E000FFFFFFFFFFFFFFFFFFFFFFFFFFFFFFFF20
:1000F000FFFFFFFFFFFFFFFFFFFFFFFFFFFFFFFF10
:10010000D07E000010000A0000000A000A0000076C
:10011000287DA3028042464366028042004381421A
:100120000000000026000000000000000B009A857F
:10013000FE7F00000000000000000000FFFFFFFF46
:10014000130000000000000002003E9B00001300AE
:100150001C006400416500003E9B0200000000009E
:1001600001000000006C6B002C48BC29DD947D016F
:10017000DD947D010030000000000000010000005F
:10018000130C0000663501003E9B02009B3E000CF4
:1001900013213566000100300000000074244B4933
:1001A0003548424F454D303031338AA1483C469363
:1001B00040000000006E0301000000020200030284
:1001C0000000010301000002030202030001030317
:1001D000030002000000020203000003020100020B
:1001E00002020002010003020203010201000202F6
:1001F00000010302010200000203010003020300E8
:100200005C7F02312B0001960895020202312D001D
:10021000019708950C0202322B00029608951602EF
:1002200002322D00029708952002013E2991399152
:10023000281739070DC02A0202443E00099119917E
:1002400029913991E990F990E016F10628073907CC
:10025000C1011CF011F0019708950895380202447D
:100260002B0029913991E990F99049915991240FE6
:10027000351F8E1D9F1D3A932A9308955E020244F6
:100280002D0029913991E990F99049915991421B9A
:10029000530BE80AF90A5A934A93C70108957E025C
:1002A00005414C4C4F540E94283A0C948F3BA002BD
:1002B0000649414C4C4F54000E94233A0C948F3B0A
:1002C000B002012C0E94233A0E948D380E949A3974
:1002D0000E940D010E94233A0E9483380C94DD385D
:1002E0000E943B380E940E946201ECCFC202895BEF
:1002F000434F4D50494C455D0E94E73E0E94393ABC
:10030000EFCFEE0247434F4D50494C450E946539AF
:100310000E94333A0E949A390E948D380E946201ED
:100320000E940D010E949A390E948D380E9462013C
:100330000E940D010E94393A0E947F3908950403FA
:10034000074C49544552414C0E943B383B380E946F
:100350007001B8CF0E943B3822000E94C63D0E9427
:100360009A390E945E390E94393A0E947F390E9470
:100370009A390E948D380E9462010E940D010E94EC
:100380004838B7010C949439400385424547494E9B
:100390000E94233A0C948D388A0383464F520E9460
:1003A0003B387F390E947001F3CF9A03844E455841
:1003B00054000E943B3848380E9470010E94393A2C
:1003C00081CFAC0385554E54494C0E943B385B3875
:1003D0000E9470010E94393A75CFC403854147419C
:1003E000494E0E943B3865380E9470010E94393A9C
:1003F00069CFDC03824946000E943B385B380E948B
:1004000070010E94C8010E943B38020055CF0E9433
:100410003B3865380E9470010E94C8010E943B3839
:1004200002000C945C01F40386524550454154008F
:100430000E94F1010E94C8010E94393A0E94A1392C
:100440000C94DD382804845448454E000E94C801AD
:100450000E94393A0E94A1390C94DD384604834148
:1004600046540E9494390E9407020E94C8010C94CD
:10047000A1395E0484454C5345000E9407020E9446
:10048000A1390C9426027404855748494C450E94B2
:10049000FC010C94A13988048641424F5254220039
:1004A0000E943B388B3E0E9470010E94AA01089571
:1004B0009804822422000E943B380C3D0E94700167
:1004C0000E94AA010895B204822E22000E943B38A5
:1004D0000E3D0E9470010E94AA0108950E949A395F
:1004E0000E94283E0E945B3881020E940E3D072038
:1004F0007265446566200E94AB390E94993B0E9458
:10050000DD3C0C9494390E949A390E945E390E9415
:100510005B38AF020E946E020E942E3A0E948D3814
:100520000E9462010E94233A0E948D380E942E3A56
:100530000E9483380E949A390E945E390E94393A9B
:100540000E947F390E949A390E948D380E94620170
:100550000E940D010E944838A2020C9494390E9416
:100560000C3D05206E616D650C94803E0E94283E16
:100570000E944B3A0E945B38CD020E9494380E9440
:100580003B3880000E94BB390E945B38C9020C9442
:1005900073380E94393A0C9470010E94753C0E9495
:1005A0005B38D4020C94A4010C94803EC804054F1F
:1005B000564552540E942E3A0E948D380E941E3A8F
:1005C0000C948338AE05C13B0E943B3808950E94CD
:1005D00062010E94AD3E0C94DA02C605015D0E94E4
:1005E0003B386C050E94123A0C948338DC05013AC2
:1005F0000E94AF3D0E9483020C94EF02EE05094970
:100600004D4D4544494154450E943B3880000E946D
:100610002E3A0E948D380E9494380E94C3390E945D
:100620002E3A0E948D380C94DD38FE050643524563
:10063000415445000E94AF3D0E9483020E94DA02AD
:100640000E943B38DD390E9470010E94283A0E94C6
:100650008D380C9462012C0608434F4E5354414E82
:1006600054000E94AF3D0E9483020E94DA020E9461
:100670003B38DD390E9470010C946201580608561F
:1006800041524941424C45000E941A030E943B38A6
:1006900002000C9453017E06024D53000E947F39E4
:1006A0000E9465385B030E943B38B4010E947F3989
:1006B0000E94483858030E9448385303089598060A
:1006C000083530304D4943524F000E943B38DD0021
:1006D0000E947F390E9448386A030895C006045476
:1006E000574252000E94DD39B800DE0604545753C9
:1006F00052000E94DD39B900EC0604545741520003
:100700000E94DD39BA00FA060454574452000E9490
:10071000DD39BB0008070454574352000E94DD39FD
:10072000BC001607055457494E540E94DD3980001D
:1007300024070454574541000E94DD394000320728
:100740000554575354410E94DD3920004007055499
:100750005753544F0E94DD3910004E07045457453B
:100760004E000E94DD3904005C07095457495F536D
:10077000504545440E94DD390C006A07085457492A
:100780005F42415544000E9472030E94543908950B
:100790007C07085457495F4F50454E000E94BA03EA
:1007A0000E94C30308959207085457495F5741496F
:1007B00054000E948E030E945E390E9495030E949D
:1007C000BB390E945B38D9030895A80706545749DE
:1007D0005F474F000E9495030E94B1030E94C339F6
:1007E0000E94C3390E948E030E9454390895CC0799
:1007F000095457495F53544152540E94A3030E9425
:10080000EA030E94D9030895F007085457495F533B
:10081000544F50000E94AA030E94EA0308950A0858
:10082000065457495F5458000E9487030E94543968
:100830000E943B3800000E94EA030E94D9030895F9
:100840002008095457495F49353335310E94CE039A
:100850000E94FD030E943B38C0000E9414040E94C5
:1008600079030E945E390E94F43C0E94313D0E944F
:100870000A0408954208095457495F573533353102
:100880000E94FD030E943B38C0000E9414040E9495
:1008900014040E9414040E94D90308957608095490
:1008A00057495F52353335310E94FD030E943B3872
:1008B000C0000E9414040E943B3800000E941404EF
:1008C0000E94FD030E943B38C1000E9414040E9454
:1008D0009A390E947F390E9465388E040E949A39A5
:1008E0000E943B3801000E94933A0E943B38C400AA
:1008F0000E948E030E9454390E94D9030E948703EC
:100900000E945E390E94A1390E9471390E94933A77
:100910000E94F43C0E94313D0E94313D0E944838C3
:100920006E040E94943908959E08085457495F52F6
:10093000454740000E94FD030E943B38C0000E94D2
:1009400014040E9414040E94FD030E943B38C1005D
:100950000E9414040E943B38C4000E948E030E942F
:1009600054390E94D9030E9487030E945E3908957A
:100970002A090A534156455F5354415445000E9489
:100980003B3800010E948E3F0E943B3800010E94CC
:100990003B3800010E94993F0E943B3880010E9431
:1009A0008E3F0E943B3880010E943B3880010E94AC
:1009B000993F089572090342494E0E943B38020054
:1009C0000E94F0390E9483380895B609044D544DB1
:1009D00050000E94DD393001CC09024452000E94CF
:1009E000DD395001DA09024141000E94DD39500130
:1009F000E609024444000E94DD395201F209024234
:100A000042000E94DD395401FE09024343000E9466
:100A1000DD3958010A0A024545000E94DD395C01B2
:100A2000160A024646000E94DD396001220A044689
:100A30004F5554000E94DD3964012E0A03504C4C7E
:100A40000E94DD3968013C0A03544D500E94DD3993
:100A50006C01480A034D32350E94DD397001540A99
:100A6000064D53305F5031000E94DD397401600A39
:100A7000064D53305F5032000E94DD397801700A14
:100A8000064D53305F5033000E94DD397C01800AEF
:100A9000074D534E415F50310E94DD398001900A6D
:100AA000074D534E415F50320E94DD398401A00A48
:100AB000074D534E415F50330E94DD398801B00A23
:100AC000055245475F580E94DD398C01C00A074432
:100AD000454C5F434E540E94DD399C01CE0A0249C9
:100AE0003E000E94A1390E943B3804000E944D3B09
:100AF0000E946F3A0E949A390E948D380E94A13953
:100B00000E943B3802000E946F3A0E948D3808957F
:100B1000DE0A023E49000E94A1390E943B380400CF
:100B20000E944D3B0E943B3802000E946F3A0E9497
:100B30006F3A0E949A390E947F390E9483380E943E
:100B400065390E943B3802000E94933A0E94833824
:100B50000895120B04322F303E000E94393A0E9451
:100B60003B38FF7F0E94BB390895540B04322A3072
:100B70003E000E943B3802000E94343B0E949439A0
:100B800008956C0B064C5348494654000E947F3927
:100B90000E946538CD050E94B9050E944838CB05F2
:100BA0000895840B06525348494654000E947F39E9
:100BB0000E946538DD050E94AD050E944838DB05BE
:100BC0000895A40B0344523E0E94A1390E94AD0532
:100BD0000E94A1390E949A390E943B3801000E946C
:100BE000BB390E945B38FD050E94A1390E943B3849
:100BF00000800E94C3390E94A1390E94AD0508956A
:100C0000C40B03444C3E0E94A1390E949A390E94B1
:100C10003B3800800E94BB390E945B381B060E9453
:100C2000A1390E94B9050E943B3801000E946F3A29
:100C30000E9465381F060E94A1390E94B9050E94D2
:100C4000A1390E94B9050E94A1390895020C0744F8
:100C50005253484946540E947F390E9465383206F3
:100C60000E94E4050E944838300608954E0C07445F
:100C70004C53484946540E947F390E9465384206C9
:100C80000E9403060E944838400608956E0C0351E6
:100C9000523E0E94A1390E949A390E943B380100BD
:100CA0000E94BB390E945B3867060E94A1390E94EE
:100CB000E4050E947F390E947F390E94E4050E946A
:100CC0003B3800800E94C3390E94653871060E943B
:100CD000A1390E94E4050E947F390E947F390E9459
:100CE000E4050E9465390E94653908958E0C035110
:100CF0004C3E0E943B3802000E94873B0E943B38DA
:100D000000800E94BB390E945B389A060E9403064D
:100D10000E94A1390E943B3801000E94C3390E9401
:100D2000A1390E947F390E947F390E9403060E94E8
:100D30006538A2060E9403060E947F390E947F390F
:100D40000E9403060E9465390E9465390895EE0CE1
:100D500007515253484946540E947F390E946538D2
:100D6000B3060E9449060E944838B1060895500D06
:100D700007514C53484946540E947F390E946538B8
:100D8000C3060E9479060E944838C1060895700D76
:100D90000544535741500E947F390E947F390E9479
:100DA00065390E94543A0E94543A0E9465390E9463
:100DB000543A0E94543A0895900D053F44524F50C2
:100DC0000E949A390E943B3800000E94A43A0E9477
:100DD0005B38EC060E9494390895BA0D054E4452D2
:100DE0004F500E947D3B0E947F390E946538FA0671
:100DF0000E9494390E944838F8060895DC0D04508A
:100E00004F5052000E947F390E949A390E946539E2
:100E10000E94F43C0E94313D0895FE0D04584D554A
:100E20004C000E949A390E947F390E94343B0E94F4
:100E3000543A0E9465390E94343B0E94A1390E94B5
:100E40007F390E943B3800000E9431010E946539C1
:100E50000E94543A0E94543A08951C0E043653419D
:100E600056000E947D3B0E943B3806000E94A43A37
:100E70000E945B385B070E943B3806000E947F3966
:100E80000E94653855070E94EF040E9471390E9444
:100E90003B3801000E946F3A0E943B3802000E94DA
:100EA0004D3B0E94933A0E9483380E944838430782
:100EB0000E9465386A070E940E3D184D75737420B4
:100EC0006265203620776F726473206F6E207374B2
:100ED00061636B0008955C0E0438534156000E9414
:100EE0007D3B0E943B3808000E94A43A0E945B3878
:100EF00099070E943B3808000E947F390E9465389C
:100F000093070E94E9040E9471390E943B38010056
:100F10000E946F3A0E943B3802000E944D3B0E94A3
:100F2000933A0E9483380E94483881070E946538AE
:100F3000A8070E940E3D184D757374206265203815
:100F400020776F726473206F6E20737461636B001F
:100F50000895D80E02512B000E947D3B0E943B3821
:100F600008000E94A43A0E945B382B080E946F0779
:100F70000E94E9040E943B3802000E94933A0E94BA
:100F80008D380E943B3800000E94E9040E943B38E3
:100F90000A000E94933A0E948D380E943B3800005C
:100FA0000E9431010E94E9040E943B3804000E9423
:100FB000933A0E948D380E946F3A0E943B3800009D
:100FC0000E94E9040E943B380C000E94933A0E9460
:100FD0008D380E943B3800000E9431010E94E904D4
:100FE0000E943B3806000E94933A0E948D380E946E
:100FF0006F3A0E943B3800000E94E9040E943B388F
:101000000E000E94933A0E948D380E943B380000E7
:101010000E9431010E94E9040E943B3808000E94AE
:10102000933A0E948D380E946F3A0E943B3800002C
:101030000E94E9040E943B3810000E94933A0E94EB
:101040008D380E943B3800000E9431010E94943983
:101050000E94653839080E940E3D164D7573742044
:101060006265203820776F72647320666F7220513A
:101070002B000895540F02512D000E947D3B0E94C9
:101080003B3808000E94A43A0E945B38D5080E94B1
:101090006F070E94E9040E943B3802000E94933AC5
:1010A0000E948D380E943B3800000E94E9040E9493
:1010B0003B380A000E94933A0E948D380E943B38C8
:1010C00000000E94893A0E9431010E94E9040E94B6
:1010D0003B3804000E94933A0E948D380E946F3A78
:1010E0000E943B3800000E94E9040E943B380C003B
:1010F0000E94933A0E948D380E943B3800000E9463
:10110000893A0E9431010E94E9040E943B3806009E
:101110000E94933A0E948D380E946F3A0E943B3899
:1011200000000E94E9040E943B380E000E94933A9E
:101130000E948D380E943B3800000E94893A0E942C
:1011400031010E94E9040E943B3808000E94933A52
:101150000E948D380E946F3A0E943B3800000E9426
:10116000E9040E943B3810000E94933A0E948D3897
:101170000E943B3800000E94893A0E9431010E947F
:1011800094390E946B3A0E946F3A0E94B3390E94D0
:101190005B38D2080E9494390E943B38FFFF0E94BE
:1011A0006538D2080E946538E3080E940E3D164D4E
:1011B000757374206265203820776F7264732066BF
:1011C0006F7220512D00089576100344442A0E9426
:1011D0003B3800000E943B3800000E9431070E940B
:1011E000EF040E943B3802000E94933A0E948D381F
:1011F0000E94EF040E943B3804000E94933A0E9430
:101200008D380E94EF040E943B3806000E94933AFA
:101210000E948D380E9411070E943B3800000E94F6
:10122000EF040E943B3802000E94933A0E948D38DE
:101230000E94EF040E943B3804000E94933A0E94EF
:101240008D380E94EF040E943B3808000E94933AB8
:101250000E948D380E9411070E943B3800000E94B6
:101260003B3810000E94BC060E94AC070895CA11CA
:101270000344553C0E94543A0E94A1390E946B3AA3
:101280000E947F390E947F390E94B03A0E945B38E9
:1012900057090E9465390E9465390E94623A0E948E
:1012A000623A0E943B38FFFF0E94653876090E942F
:1012B00065390E9465390E94A43A0E945B38710921
:1012C0000E94B03A0E945B386B090E943B38FFFFD6
:1012D0000E9465386E090E943B3800000E94653804
:1012E00076090E94623A0E943B380000089570120D
:1012F000034444260E94543A0E94BB390E94A139FB
:101300000E94543A0E94BB390E94A1390895F012FC
:10131000074449564C4F4F500E943B3800000E94F2
:101320007F390E9465390E943B3801000E946F3A64
:101330000E947F390E946B3A0E947F390E947F3958
:101340000E9441010E949A390E94B3390E943B38A1
:1013500001000E946F3A0E945B38B5090E9465390E
:101360000E9465390E94653891090E9465390E9482
:1013700065390E9431010E9494390E9494390E947B
:1013800065390E9408010895101306445343414CE7
:1013900045000E943B3800000E943B3804000E9438
:1013A0006F3A0E947F390E94EF040E943B3802008E
:1013B0000E94933A0E948D380E94EF040E943B38AD
:1013C00004000E94933A0E948D380E94EF040E940C
:1013D0003B3806000E94933A0E948D380E94EF0429
:1013E0000E943B3808000E94933A0E948D380E9468
:1013F0006B3A0E946F3A0E945B38010A0E9465387E
:101400000A0A0E9465390E943B3804000E94933A00
:101410000E947F390E9471390E94AC060E946F3A87
:101420000E945B381A0A0E94F1060E9465390E94E8
:101430006538CC090E946B3A0E94EF040E943B3849
:101440000A000E94933A0E948D380E94EF040E9485
:101450003B380C000E94933A0E948D380E943A0952
:101460000E94793A0E945B38640A0E943B3800006F
:101470000E943B3804000E946F3A0E947F390E940C
:101480003B3804000E942B060E946B3A0E94EF0436
:101490000E943B380A000E94933A0E948D380E94B5
:1014A000EF040E943B380C000E94933A0E948D3852
:1014B0000E943A090E94793A0E945B38640A0E94AD
:1014C00065390E946538380A0E94F1060E94653924
:1014D0000E943B3804000E94933A0E9465390E94A2
:1014E0006F3A08958A130444484558000E947F3992
:1014F0000E94EF040E943B3802000E94933A0E942F
:101500008D380E94EF040E943B3804000E94933AF9
:101510000E948D380E94EF040E943B3806000E9412
:10152000933A0E948D380E94EF040E943B380800D5
:101530000E94933A0E948D380E9471390E94AC0635
:101540000E94E0060E94E0060E94EF040E943B38E1
:101550000A000E94933A0E948D380E94EF040E9474
:101560003B380C000E94933A0E948D380E948C09EF
:101570000E949A390E943B3800000E9471390E94F3
:101580003B060E94EF040E943B3810000E94933AF1
:101590000E948D380E94EF040E943B380E000E948A
:1015A000933A0E948D380E9431010E94EF040E94FC
:1015B0003B380E000E94933A0E9483380E94EF0449
:1015C0000E943B3810000E94933A0E9483380E9488
:1015D00065390895E6140434444956000E943B38A6
:1015E00000000E94EF040E943B380E000E94933AD4
:1015F0000E9483380E943B3800000E94EF040E9442
:101600003B3810000E94933A0E9483380E943B3876
:1016100000000E94EF040E943B3802000E94933AAF
:101620000E9483380E943B3800000E94EF040E9411
:101630003B3804000E94933A0E9483380E9431078D
:101640000E94EF040E943B3802000E94933A0E94DD
:101650008D380E94EF040E943B3804000E94933AA8
:101660000E948D380E94EF040E943B3806000E94C1
:10167000933A0E948D380E94EF040E943B38080084
:101680000E94933A0E948D380E94EF040E943B38DA
:101690000A000E94933A0E948D380E94EF040E9433
:1016A0003B380C000E94933A0E948D380E943B38D0
:1016B00000000E943B3800000E943D080E94E006A6
:1016C0000E94E0060E943B38FFFF0E94A43A0E945D
:1016D000793A0E945B38FE0B0E94F1060E94C9090C
:1016E0000E94760A0E947F390E947F390E94EF048F
:1016F0000E943B3802000E94933A0E948D380E945B
:10170000EF040E943B3804000E94933A0E948D38F7
:101710000E94EF040E943B3806000E94933A0E9408
:101720008D380E94EF040E943B3808000E94933AD3
:101730000E948D380E94EF040E943B380A000E94EC
:10174000933A0E948D380E94EF040E943B380C00AF
:101750000E94933A0E948D380E9465390E941107B9
:101760000E943B3800000E9465390E94BC060E941E
:101770003D080E94EF040E943B3808000E94933A03
:101780000E9483380E94EF040E943B3806000E94AA
:10179000933A0E9483380E946B3A0E94EF040E94A1
:1017A0003B3804000E94933A0E9483380E94EF0461
:1017B0000E943B3802000E94933A0E9483380E94A4
:1017C000EF040E943B380A000E94933A0E948D3831
:1017D0000E94EF040E943B380C000E94933A0E9442
:1017E0008D380E943A090E94793A0E945B38FB0BBF
:1017F0000E9465386E0B0E946538000C0E94F1064D
:101800000E94EF040E943B3810000E94933A0E940D
:101810008D380E94EF040E943B380E000E94933ADC
:101820000E948D380E94EF040E943B3802000E9403
:10183000933A0E948D380E94EF040E943B380400C6
:101840000E94933A0E948D380895D61505544F444E
:1018500049560E947D3B0E947F390E9471390E9447
:101860003B3802000E94BC3A0E945B38490C0E943F
:101870000E3D184D757374206265206174206C658F
:10188000617374203220776F726473000E94653830
:10189000EE0C0E9471390E943B3803000E94BC3A52
:1018A0000E945B386D0C0E940E3D073220776F72EC
:1018B00064730E94233B0E94A1390E943B38FF7F42
:1018C0000E9416010E945B386A0C0E943B3801009E
:1018D0000E946F3A0E946538EE0C0E9471390E9496
:1018E0003B3804000E94BC3A0E945B38910C0E9475
:1018F0000E3D073320776F7264730E94E83A0E94AE
:10190000A1390E943B38FF7F0E9416010E945B387C
:101910008E0C0E943B3801000E946F3A0E9465388D
:10192000EE0C0E9471390E943B3805000E94BC3ABF
:101930000E945B38B40C0E940E3D073420776F7212
:1019400064730E943B3800000E94543A0E94543A4B
:101950000E943B3800000E94543A0E94543A0E9470
:10196000EE0A0E946538EE0C0E9471390E943B38E5
:1019700006000E94BC3A0E945B38D00C0E940E3DCB
:10198000073520776F7264730E943B3800000E9415
:10199000543A0E94543A0E94EE0A0E946538EE0CB6
:1019A0000E9471390E943B3807000E94BC3A0E9495
:1019B0005B38E50C0E940E3D073620776F7264732A
:1019C0000E94EE0A0E946538EE0C0E940E3D0C4506
:1019D00072726F7220446976696465000E9465398D
:1019E0000E94943908954C1804494E4954000E94AD
:1019F0003B3800000E94F5040E9483380E943B3867
:101A000000000E94FB040E9483380E943B380000C3
:101A10000E943B3800000E943B3800000E940105F4
:101A20000E948B050E943B3800000E943B3800005A
:101A30000E943B3800000E9407050E948B050E940F
:101A40003B3800000E943B3800000E943B380000F9
:101A50000E940D050E948B050E943B3801000E94E8
:101A60003B3800000E943B3800000E9413050E9492
:101A70008B050E943B38F0140E943B38D7000E942F
:101A80003B3800000E941A050E948B050E943B38DB
:101A900040780E943B387D010E943B3800000E9444
:101AA0002C050E948B050E943B3874240E946B0514
:101AB0000E9483380E9434050E943B3814000E9423
:101AC0007F390E946538720D0E949A390E943B3816
:101AD00000000E94A1390E9483380E943B38020016
:101AE0000E946F3A0E944838640D0E94F1060895E2
:101AF000E81905544D502B3D0E943B3800000E94D0
:101B000026050E9471050E9431010E943B380000A9
:101B10000E9426050E948B050895F21A054452453D
:101B200041440E943B3800000E943B3800000E9464
:101B30003B3800000E9426050E948B050E943B381E
:101B400000000E943B380F000E947F390E946538D8
:101B5000B90D0E949A390E943B3800070E946F3AE3
:101B60000E945E390E94A1390E943B3801000E9408
:101B70006F3A0E944838A90D0E9494390E943B3860
:101B80000F000E947F390E946538C80D0E94E00650
:101B90000E944838C60D0E947D3B0E947F390E94FA
:101BA0003B3800000E9465390E943B3801000E94CA
:101BB000933A0E949A390E947F390E94B3390E9459
:101BC000793A0E945B38040F0E943B3801000E9462
:101BD0006F3A0E949A390E943B3801000E94A43A51
:101BE0000E945B38090E0E940E3D044F6E65730023
:101BF0000E94A1390E943B3830000E94933A0E9413
:101C00003B3801000E94343B0E947C0D0E946538E5
:101C1000010F0E949A390E943B3802000E94A43AA8
:101C20000E945B38290E0E940E3D0454656E7300BD
:101C30000E94A1390E943B3830000E94933A0E94D2
:101C40003B380A000E94343B0E947C0D0E9465389C
:101C5000010F0E949A390E943B3803000E94A43A67
:101C60000E945B384B0E0E940E3D0848756E6472F0
:101C7000656473000E94A1390E943B3830000E94C5
:101C8000933A0E943B3864000E94343B0E947C0DD2
:101C90000E946538010F0E949A390E943B38040067
:101CA0000E94A43A0E945B386D0E0E940E3D0954BA
:101CB000686F7573616E64730E94A1390E943B382E
:101CC00030000E94933A0E943B38E8030E94343B64
:101CD0000E947C0D0E946538010F0E949A390E9473
:101CE0003B3805000E94A43A0E945B388D0E0E948A
:101CF0000E3D043130204B000E94A1390E943B3838
:101D000030000E94933A0E943B3810270E94343BD7
:101D10000E947C0D0E946538010F0E949A390E9432
:101D20003B3806000E94A43A0E945B38B40E0E9421
:101D30000E3D05313030204B0E94A1390E943B38C6
:101D400030000E94933A0E943B38A0860E943B38A4
:101D500001000E94543A0E9411070E94E0060E946E
:101D60007C0D0E946538010F0E949A390E943B3811
:101D700007000E94A43A0E945B38DD0E0E940E3DCF
:101D8000084D696C6C696F6E73000E94A1390E94E6
:101D90003B3830000E94933A0E943B3840420E94F8
:101DA0003B380F000E94543A0E9411070E94E0063F
:101DB0000E947C0D0E946538010F0E949A390E9492
:101DC0003B3808000E94A43A0E945B38010F0E9431
:101DD0000E3D053130204D4D0E94A1390E943B3807
:101DE00030000E94933A0E943B3880960E943B3814
:101DF00098000E94543A0E9411070E94E0060E9437
:101E00007C0D0E946538D20D0E94653908951C1B17
:101E1000044645513E000E940E3D33496E70757474
:101E2000206672657175656E637920696E20485A07
:101E30002069652E203134303734303030207468DA
:101E4000656E20707265737320456E7465720E94B2
:101E5000F43C0E943B3800000E943B3810000E9476
:101E60007F390E946538470F0E949A390E943B389B
:101E700000070E946F3A0E943B3800000E94A1397F
:101E80000E9454390E943B3801000E946F3A0E9420
:101E90004838340F0E9494390E94753E0E94F43CE9
:101EA0000E94910D0E9426050E941A050E943B384F
:101EB00004000E94CD3B0E94F1060E94F1060895A5
:101EC000101E04434C4B3E000E940E3D38496E707C
:101ED000757420746865203533353120636C6F6309
:101EE0006B20696E20485A2069652E2032353030CB
:101EF00034353030207468656E20707265737320DD
:101F0000456E746572000E94F43C0E943B380000EC
:101F10000E943B3810000E947F390E946538A30F51
:101F20000E949A390E943B3800070E946F3A0E9433
:101F30003B3800000E94A1390E9454390E943B386E
:101F400001000E946F3A0E944838900F0E94943915
:101F50000E94753E0E94F43C0E94910D0E9426054D
:101F60000E942C050E943B3804000E94CD3B0E9439
:101F7000F1060E94F1060895C21E055041524D53CC
:101F80000E94F43C0E940E3D05466F7574200E942D
:101F90003B3800000E941A050E9471050E94313DE5
:101FA0000E94C83C0E94313D0E94F43C0E940E3DBC
:101FB0000520636C6B200E943B3800000E942C05BA
:101FC0000E9471050E94313D0E94C83C0E94313D33
:101FD0000E94F43C0E940E3D0520202061200E94BA
:101FE000F5040E948D380E94313D0E94C83C0E9439
:101FF000F43C0E940E3D0520202062200E943B38C8
:1020000000000E9401050E9471050E94313D0E945E
:10201000C83C0E94313D0E94F43C0E940E3D0520C8
:10202000202063200E943B3800000E9407050E9488
:1020300071050E94313D0E94C83C0E94313D0E94C2
:10204000F43C0E940E3D0520202064200E94FB04E9
:102050000E948D380E94313D0E94C83C0E94F43C91
:102060000E940E3D0520202065200E943B38000084
:102070000E940D050E9471050E94313D0E94C83CDE
:102080000E94313D0E94F43C0E940E3D052020201C
:1020900066200E943B3800000E9413050E947105D3
:1020A0000E94313D0E94C83C0E94313D0E94F43C98
:1020B00008957A1F0543414C5F430E943B3800005E
:1020C0000E9420050E9471050E943B3800000E947A
:1020D0003B3800000E94FB040E948D380E943B3870
:1020E00000000E94290C0E9494390E9494390E9499
:1020F0003B3800000E943B3800000E943B38100033
:102100000E94BC060E943B38C9760E943B38010001
:102110000E94290C0E9494390E9494390E943B38F5
:1021200000000E943B3800000E94F5040E948D3898
:102130000E943B3800000E94290C0E9494390E94A2
:1021400094390E943B3800000E9407050E948B05CD
:102150000895B420075345545F504C4C0E943B38BF
:102160001C000E94F5040E9483380E943B38000046
:102170000E942C050E9471050E94F5040E948D3872
:102180000E9411070E9494390E943B3800000E946F
:1021900020050E948B050E945D100E943B380100C3
:1021A0000E943B3800000E943B3800000E9401055D
:1021B0000E948B05089554210442414E44000E9420
:1021C0001A050E943B3802000E946F3A0E948D3827
:1021D0000E949A390E947F390E943B3833000E9446
:1021E0003B3838000E94DD3A0E945B38FE100E94A6
:1021F0003B38C8000E94FB040E9483380E9471395A
:102200000E943B3868000E943B386C000E94DD3A17
:102210000E945B3812110E943B3864000E94FB044C
:102220000E9483380E9471390E943B3896000E94B8
:102230003B389B000E94DD3A0E945B3826110E94C9
:102240003B3846000E94FB040E9483380E9471398B
:102250000E943B38D4000E943B38D9000E94DD3AEE
:102260000E945B383A110E943B3832000E94FB0406
:102270000E9483380E9465390E943B38A9010E9460
:102280003B38AE010E94DD3A0E945B384E110E943D
:102290003B3819000E94FB040E9483380E94AE1054
:1022A0000895B8210843414C5F41424344000E94D5
:1022B000DF100E943B3800000E9420050E9471053B
:1022C0000E94FB040E948D380E943B3800000E944F
:1022D000290C0E9494390E9494390E943B380000D6
:1022E0000E941A050E9471050E94CB060E944101BE
:1022F0000E943B3800000E943B3800000E943B389F
:1023000010000E94BC060E943B38C9760E943B38F0
:1023100001000E94290C0E9494390E9494390E9465
:102320003B3800000E9401050E948B050895A422FD
:102330000943414C5F4D533050310E943B380000FF
:102340000E940D050E9471050E943B3807000E9403
:102350003B060E943B3800000E943B3800000E9470
:102360003B3800000E9413050E9471050E94290C51
:102370000E9494390E9494390E943B3800020E94C6
:102380003B3800000E9441010E94FB040E948D38EE
:102390000E943B3807000E94C6050E943B3800009F
:1023A0000E9431010E943B3800000E9434050E94C7
:1023B0008B05089530230943414C5F4D5330503213
:1023C0000E943B3800000E940D050E9471050E948A
:1023D0003B3807000E943B060E946B3A0E947F39FF
:1023E0000E947F390E943B3800000E943B38000069
:1023F0000E943B3800000E9413050E9471050E9454
:10240000290C0E9494390E9494390E943B380000A4
:102410000E9413050E9471050E94E7080E949439EA
:102420000E9494390E9465390E9465390E94CB064A
:102430000E9441010E943B3800000E943C050E941E
:102440008B050895B6230943414C5F4D53305033FB
:102450000E943B3800000E9413050E9471050E94F3
:102460003B3800000E9444050E948B0508954624D5
:102470000A43414C5F4D534E415031000E943B385E
:1024800000000E9401050E9471050E943B38070070
:102490000E943B060E943B3800000E943B3800002F
:1024A0000E943B3800000E9407050E9471050E94AF
:1024B000290C0E9494390E9494390E943B380002F2
:1024C0000E943B3800000E9441010E94F5040E94D6
:1024D0008D380E943B3807000E94C6050E943B3899
:1024E00000000E9431010E943B3800000E944C0510
:1024F0000E948B05089570240A43414C5F4D534E52
:10250000415032000E943B3800000E9401050E94A9
:1025100071050E943B3807000E943B060E946B3AFF
:102520000E947F390E947F390E943B3800000E9440
:102530003B3800000E943B3800000E9407050E94C3
:1025400071050E94290C0E9494390E9494390E94BE
:102550003B3800000E9407050E9471050E94E708B1
:102560000E9494390E9494390E9465390E9465390D
:102570000E94CB060E9441010E943B3800000E944D
:1025800054050E948B050895F8240A43414C5F4D81
:10259000534E415033000E943B3800000E94070513
:1025A0000E9471050E943B3800000E945C050E9459
:1025B0008B0508958A250743414C5F464D440E9490
:1025C0003B3800000E945C050E9471050E943B3868
:1025D00000FF0E943B3800000E947A090E943B38AD
:1025E00008000E942B060E9494390E9463050E94F5
:1025F00054390E943B3800000E945C050E9471051E
:102600000E943B38FF000E943B3800000E947A097C
:102610000E9494390E9463050E943B3801000E9489
:102620006F3A0E9454390E943B3800000E944C05CA
:102630000E9471050E943B3800000E943B38030055
:102640000E947A090E9463050E943B3802000E94A2
:102650006F3A0E9454390E9494390E943B3800001E
:102660000E944C050E9471050E943B3800FF0E94A9
:102670003B3800000E947A090E943B3808000E9403
:102680002B060E9494390E9463050E943B38030088
:102690000E946F3A0E9454390E943B3800000E9409
:1026A0004C050E9471050E943B38FF000E943B3898
:1026B00000000E947A090E9494390E9463050E94DA
:1026C0003B3804000E946F3A0E9454390E943B3804
:1026D00000000E945C050E9471050E943B380000CA
:1026E0000E943B380F000E947A090E943B380C0080
:1026F0000E942B060E943B3800000E9454050E9455
:1027000071050E943B3800000E943B380F000E9478
:102710007A090E943B3810000E942B060E949439CF
:102720000E94A1390E9494390E94C3390E94630516
:102730000E943B3805000E946F3A0E9454390E9463
:102740003B3800000E9454050E9471050E943B38EE
:1027500000FF0E943B3800000E947A090E943B382B
:1027600008000E942B060E9494390E9463050E9473
:102770003B3806000E946F3A0E9454390E943B3851
:1027800000000E9454050E9471050E943B38FF0022
:102790000E943B3800000E947A090E9494390E94EE
:1027A00063050E943B3807000E946F3A0E9454392B
:1027B0000895B6250743414C5F4F4D440E943B3876
:1027C00000000E9444050E9471050E943B3800FFF2
:1027D0000E943B3800000E947A090E943B380800A2
:1027E0000E942B060E9494390E9463050E943B3888
:1027F00008000E946F3A0E9454390E943B38000042
:102800000E9444050E9471050E943B38FF000E940F
:102810003B3800000E947A090E9494390E946305A7
:102820000E943B3809000E946F3A0E9454390E946E
:102830003B3800000E9434050E9471050E943B381D
:1028400000000E943B3803000E947A090E94630541
:102850000E943B380A000E946F3A0E9454390E943D
:1028600094390E943B3800000E9434050E94710593
:102870000E943B3800FF0E943B3800000E947A090A
:102880000E943B3808000E942B060E9494390E9447
:1028900063050E943B380B000E946F3A0E94543936
:1028A0000E943B3800000E9434050E9471050E947E
:1028B0003B38FF000E943B3800000E947A090E94CA
:1028C00094390E9463050E943B380C000E946F3AC5
:1028D0000E9454390E943B3800000E9444050E9427
:1028E00071050E943B3800000E943B380F000E9497
:1028F0007A090E943B380C000E942B060E943B384C
:1029000000000E943C050E9471050E943B380000B7
:102910000E943B380F000E947A090E943B38100049
:102920000E942B060E9494390E94A1390E9494397A
:102930000E94C3390E9463050E943B380D000E942B
:102940006F3A0E9454390E943B3800000E943C05B7
:102950000E9471050E943B3800FF0E943B38000036
:102960000E947A090E943B3808000E942B060E94B0
:1029700094390E9463050E943B380E000E946F3A12
:102980000E9454390E943B3800000E943C050E947E
:1029900071050E943B38FF000E943B3800000E94F6
:1029A0007A090E9494390E9463050E943B380F0007
:1029B0000E946F3A0E9454390895B4270743414C4E
:1029C0005F414C4C0E949D110E94E0110E94281210
:1029D0000E943E120E9482120E94CB120E94DF12BD
:1029E0000E94DE130895BC290452454753000E94FB
:1029F00057110E94E2140895E8290546544553549E
:102A00000E943B3800000E9401050E9471050E944F
:102A10003B3800000E942C050E9471050E94E708C7
:102A20000E943B3800000E9407050E9471050E9429
:102A3000290C0E9494390E9494390E943B3800006E
:102A40000E9420050E9471050E9431010E94FB0432
:102A50000E948D380E943B3800000E94290C0E9481
:102A600094390E9494390E94323F0895FA2904460D
:102A7000545354000E943B3800000E9401050E94FC
:102A800071050E943B3800000E942C050E947105D0
:102A90000E94E7080E943B3800000E9407050E9440
:102AA00071050E94290C0E9494390E9494390E9459
:102AB0003B3800000E9420050E9471050E943101F0
:102AC0000E943B3800000E9413050E9471050E947D
:102AD000E7080E943B3800000E9413050E94710520
:102AE0000E94FB040E948D380E9411070E949439B5
:102AF0000E943B3800000E940D050E9471050E9453
:102B000031010E94290C0E94323F08956E2A094922
:102B10004E49545F524547530E9426040E941305B4
:102B20000E943B3803000E9440040E943B38100082
:102B30000E943B3808000E947F390E946538AE151C
:102B40000E949A390E943B3880000E94A1390E945D
:102B500040040E943B3801000E946F3A0E944838AE
:102B6000A0150E943B3800000E943B380F000E94D5
:102B700040040E943B3800000E943B3818000E942D
:102B800040040E943B3800000E943B382A000E940B
:102B900040040E943B3801000E943B382B000E94F9
:102BA00040040E943B3800000E943B382F000E94E6
:102BB00040040E943B3800000E943B3830000E94D5
:102BC00040040E943B3800000E943B3831000E94C4
:102BD00040040E943B384F000E943B3810000E9486
:102BE00040040E943B3812000E943B38B7000E940C
:102BF00040040E943B38FE000E943B3803000E94C4
:102C000040040E94943908950E2B085345545F5296
:102C1000454753000E943B381A000E943B38080089
:102C20000E947F390E9465382D160E949A390E94B1
:102C30003B3807000E9471390E94933A0E94630555
:102C40000E946F3A0E945E390E94A1390E9440049E
:102C50000E943B3801000E946F3A0E9448381516C6
:102C60000E9494390E943B382A000E943B38080099
:102C70000E947F390E9465385A160E949A390E9434
:102C80003B3807000E9471390E94933A0E94630505
:102C90000E943B3808000E946F3A0E946F3A0E94DF
:102CA0005E390E94A1390E9440040E943B38010015
:102CB0000E946F3A0E9448383D160E9494390E9443
:102CC0003B3820000E943B38B1000E944004089528
:102CD0000A2C0442535452000E94DD399E01D22C2A
:102CE0000542415252590E94DD39AA01E02C075396
:102CF000594D424F4C530E94DD39B601EE2C07422C
:102D000049545F5245560E94E9040E9454390E947A
:102D10003B3800000E94E9040E943B3801000E94F9
:102D20006F3A0E9454390E943B3800000E949A3941
:102D30000E943B3808000E94BC3A0E945B38E016B3
:102D40000E949A390E943B3801000E94A1390E94DA
:102D5000C6050E94E9040E945E390E94BB390E94A8
:102D60005B38D6160E949A390E943B3807000E94B1
:102D7000A1390E94933A0E943B3801000E94A13978
:102D80000E94C6050E94E9040E943B3801000E948F
:102D90006F3A0E945E390E94C3390E94E9040E9482
:102DA0003B3801000E946F3A0E9454390E943B3820
:102DB00001000E946F3A0E949A390E946538981665
:102DC0000E9494390E94E9040E943B3801000E944D
:102DD0006F3A0E945E390895FE2C0A494E505554B0
:102DE0005F57535052000E940E3D2F496E7075740C
:102DF0002074686520313220636861726163746594
:102E000072205753505220737472696E67202D20C0
:102E10004E6F20737061636573200E94F43C0E94C2
:102E20003B3800000E943B3810000E947F390E940E
:102E300065382D170E949A390E943B3800070E947E
:102E40006F3A0E943B3800000E94A1390E94543919
:102E50000E943B3801000E946F3A0E9448381A17BE
:102E60000E9494390E94753E0E94F43C0E943B38B7
:102E700000070E946C160E943B380C000E94CD3B5C
:102E80000E943B3800000E943B3810000E947F39AE
:102E90000E9465385E170E949A390E943B380007ED
:102EA0000E946F3A0E943B3800000E94A1390E94A4
:102EB00054390E943B3801000E946F3A0E94483802
:102EC0004B170E9494390895DA2D0756414C554509
:102ED00035300E947F390E9471390E943B382000B2
:102EE0000E94A43A0E945B387B170E943B38240062
:102EF0000E946538A6170E9471390E943B38300045
:102F00000E943B3839000E94DD3A0E945B389217DC
:102F10000E9471390E943B3830000E94933A0E940F
:102F20006538A6170E9471390E943B3841000E9403
:102F30003B385A000E94DD3A0E945B38A6170E9477
:102F400071390E943B3837000E94933A0E946539DC
:102F50000E9494390895CA2E0643414C4C353000E6
:102F60000E947F390E943B3800000E943B380000DD
:102F70000E9471390E943B3800000E946F3A0E9403
:102F80005E390E9469170E943B3800000E9431019F
:102F90000E943B3824000E9411070E9494390E942D
:102FA00071390E943B3801000E946F3A0E945E39DD
:102FB0000E9469170E943B3800000E9431010E9464
:102FC0003B380A000E9411070E9494390E9471390F
:102FD0000E943B3802000E946F3A0E945E390E94B4
:102FE00069170E943B3800000E9431010E943B3863
:102FF0001B000E9411070E9494390E9471390E949F
:103000003B3803000E946F3A0E945E390E946917A4
:103010000E943B3800000E9431010E943B380A00A8
:103020000E943B3800000E9441010E943B381B0077
:103030000E9411070E9494390E9471390E943B3806
:1030400004000E946F3A0E945E390E9469170E9434
:103050003B3800000E9431010E943B380A000E9468
:103060003B3800000E9441010E943B381B000E9437
:1030700011070E9494390E9471390E943B38050063
:103080000E946F3A0E945E390E9469170E943B3885
:1030900000000E9431010E943B380A000E943B3828
:1030A00000000E9441010E9465390E9494390895F0
:1030B000582F054C4F4335300E947F390E943B38D2
:1030C000B3000E943B3800000E9471390E943B38D7
:1030D00006000E946F3A0E945E390E943B38410010
:1030E0000E94933A0E943B3800000E943B380A003D
:1030F0000E9411070E9494390E9441010E94713977
:103100000E943B3808000E946F3A0E945E390E947C
:103110003B3830000E94933A0E943B3800000E94E6
:1031200041010E943B38B4000E9411070E9494396B
:103130000E9471390E943B3807000E946F3A0E943A
:103140005E390E943B3841000E94933A0E943B380E
:1031500000000E943B380A000E9411070E94943927
:103160000E9431010E9471390E943B3809000E947F
:103170006F3A0E945E390E943B3830000E94933AB9
:103180000E943B3800000E9431010E943B3807003A
:103190000E943B060E9471390E943B380A000E943F
:1031A0006F3A0E945E390E943B3830000E94933A89
:1031B0000E943B380A000E944D3B0E9471390E94D8
:1031C0003B380B000E946F3A0E945E390E943B38E8
:1031D00030000E94933A0E946F3A0E943B384000B0
:1031E0000E946F3A0E943B3800000E9431010E9409
:1031F00065390E9494390895B23004384249540028
:103200000E949A390E947F390E94B0170E943B3871
:1032100000000E943B3800000E943B3816000E94CC
:10322000BC060E9465390E945C180E943B38000071
:103230000E943B3800000E94AC070E94323F0E946F
:10324000F43C0E943B380E000E94BC060E949A3952
:103250000E943B38FF000E94BB390E9473160E94F7
:103260003B3801000E946F3A0E9454390E943B385B
:1032700008000E94D6050E9473160E943B38000089
:103280000E946F3A0E9454390E949A390E943B383A
:10329000FF000E94BB390E9473160E943B38030056
:1032A0000E946F3A0E9454390E943B3808000E94E5
:1032B000D6050E9473160E943B3802000E946F3AA6
:1032C0000E9454390E949A390E943B38FF000E94A4
:1032D000BB390E9473160E943B3805000E946F3A6A
:1032E0000E9454390E943B3808000E94D6050E9473
:1032F00073160E943B3804000E946F3A0E945439B2
:103300000E949A390E943B38FF000E94BB390E94FC
:1033100073160E943B3807000E946F3A0E9454398E
:103320000E943B3808000E94D6050E9473160E9436
:103330003B3806000E946F3A0E9454390E943B3885
:1033400000000E9473160E943B3808000E946F3AEA
:103350000E9454390E943B3800000E9473160E945C
:103360003B3809000E946F3A0E9454390E943B3852
:1033700000000E9473160E943B380A000E946F3AB8
:103380000E9454390895FA31065041524954590067
:103390000E947F390E9471390E943B3800000E94D0
:1033A000A43A0E945B38191A0E943B3801000E941F
:1033B000E9040E9471050E943B3851530E943B383A
:1033C000D0F20E947A090E943B3800000E94E90472
:1033D0000E948B050E943B3800000E943B3832005F
:1033E0000E947F390E946538131A0E94E9040E94E6
:1033F0008D380E943B3801000E94BB390E94CB39B6
:103400000E943B3800000E94E9040E9471050E945E
:103410003B3801000E942B060E943B3800000E94AE
:10342000E9040E948B050E944838F5190E9465380E
:10343000651A0E9471390E943B3801000E94A43A2B
:103440000E945B38651A0E943B3802000E94E90422
:103450000E9471050E943B38473C0E943B3861E462
:103460000E947A090E943B3800000E94E9040E94F1
:103470008B050E943B3800000E943B3832000E94BE
:103480007F390E946538621A0E94E9040E948D38D3
:103490000E943B3801000E94BB390E94CB390E9438
:1034A0003B3800000E94E9040E9471050E943B38ED
:1034B00001000E942B060E943B3800000E94E90494
:1034C0000E948B050E944838441A0E9465390E9468
:1034D0009439089588330642495447454E000E9466
:1034E0009A390E947F390E943B3802000E944D3B6E
:1034F0000E943B3800000E94C8190E94A1390E9416
:103500007B160E946F3A0E9454390E9471390E94C2
:103510003B3802000E944D3B0E943B3801000E9454
:103520006F3A0E943B3801000E94C8190E94A139DD
:103530000E947B160E946F3A0E9454390E9465399E
:103540000895D634034645430E943B3800000E944C
:103550003B3800000E943B3800000E94E9040E94B2
:103560008B050E943B3800000E943B3800000E94FF
:103570003B3801000E94E9040E948B050E943B3801
:1035800000000E943B3800000E943B3802000E946D
:10359000E9040E948B050E943B3800000E943B38E2
:1035A0000B000E947F390E946538561B0E947139BA
:1035B0000E94793A0E943B380B000E946F3A0E94A9
:1035C00073160E946F3A0E945E390E943B380800D1
:1035D0000E947F390E946538511B0E9471390E94F8
:1035E000793A0E943B3808000E946F3A0E946B3A79
:1035F0000E94543A0E9494390E94C6050E943B38AA
:1036000080000E94BB390E943B3880000E94A43A8F
:103610000E945B38111B0E943B3801000E946538F4
:10362000141B0E943B3800000E949A390E943B38CC
:1036300000000E943B3801000E94E9040E947105CD
:103640000E943B3801000E943B060E9431010E940B
:103650003B3801000E94E9040E948B050E943B3820
:1036600000000E943B3802000E94E9040E9471059C
:103670000E943B3801000E943B060E9431010E94DB
:103680003B3802000E94E9040E948B050E94A13988
:103690000E946F1A0E943B3801000E946F3A0E94FC
:1036A000A1390E944838ED1A0E9494390E94483886
:1036B000D61A0E949439089544350A494E54455209
:1036C0004C45415645000E943B3800000E941305BE
:1036D0000E947F390E946538C81B0E9471390E9480
:1036E000793A0E9413050E946F3A0E9483160E9445
:1036F0009A390E943B38A2000E94BC3A0E945B3873
:10370000B31B0E94A1390E949A390E947B160E9425
:103710006F3A0E945E390E943B3801000E946F3A66
:103720000E943B3804000E94C6050E94543A0E9441
:103730009A390E947B160E946F3A0E945E390E945D
:10374000543A0E94C3390E94A1390E947B160E94FC
:103750006F3A0E9454390E943B3801000E946F3A30
:103760000E946538B51B0E9494390E949A390E94C4
:103770003B38A2000E94A43A0E945B38C81B0E94FA
:1037800065390E9494390E943B3800000E947F39BD
:103790000E9448386D1B0E949A390E943B38A20053
:1037A0000E94A43A0E945B38661B0E9494390895D7
:1037B000BA360553594D31360E94A1390E947F39DE
:1037C0000E943B3800000E949A390E94543A0E949D
:1037D0009A390E94543A0E94C6050E943B380080E4
:1037E0000E94BB390E943B380F000E94D6050E9400
:1037F000543A0E949A390E9471390E946F3A0E948D
:103800007B160E946F3A0E945E390E943B3820006E
:103810000E94933A0E94B3390E945B38151C0E94A3
:103820003B3800000E946538181C0E943B3801009C
:103830000E943B3802000E944D3B0E94543A0E9475
:103840006F3A0E94A1390E949A390E94543A0E940C
:10385000A1390E9471390E946F3A0E947B160E9422
:103860006F3A0E9454390E943B3801000E946F3A1F
:103870000E949A390E943B3810000E94A43A0E948C
:103880005B38E31B0E9494390E9494390E94653989
:103890000E943B3810000E946F3A0895B2370853D7
:1038A000594E435F4F5554000E943B3800000E9420
:1038B0003B388EC00E94DC1B0E943B38E0250E94F2
:1038C000DC1B0E943B3802250E94DC1B0E943B3817
:1038D0001A9A0E94DC1B0E943B38A91A0E94DC1B2A
:1038E0000E943B386A2C0E94DC1B0E943B389320CC
:1038F0000E94DC1B0E943B3847B30E94DC1B0E94E5
:103900003B3830050E94DC1B0E943B38C61A0E94DF
:10391000DC1B0E943B3800000E94DC1B0E94F10669
:1039200008959E380853594D5F54494D45000E94F3
:103930007F390E943B38B1020E944E030E944838F2
:10394000991C0E940E3D012A089524390A44454CD1
:1039500041595F39343030000E947F390E946B0535
:103960000E948D380E944E030E944838AE1C0E946F
:103970000E3D073D20326D696E2008954C39044498
:10398000454C4C000E947F390E946538CD1C0E9436
:103990006B050E948D380E944E030E944838C71C58
:1039A00008957E39025235000E94DD395802A4394B
:1039B000025236000E94DD395C02B03902523700F3
:1039C0000E94DD396002BC390753594D5F5345549D
:1039D0000E943B3804000E947F390E946538761DA2
:1039E0000E943B3800000E9401050E9471050E9460
:1039F00071390E94793A0E943B3804000E946F3A64
:103A00000E943B3832000E946F3A0E943B3800000F
:103A10000E9431010E943B3800000E9401050E9473
:103A20008B050E9482120E94DF120E943B38000028
:103A30000E9401050E9471050E9471390E94793A25
:103A40000E943B3804000E946F3A0E943B383200CB
:103A50000E946F3A0E943B3800000E9441010E9480
:103A60003B3800000E9401050E948B050E947139BD
:103A70000E94793A0E943B3804000E946F3A0E94EB
:103A80009A390E9463050E943B3805000E946F3AF4
:103A90000E945E390E94A1390E94D41C0E946F3A94
:103AA0000E9454390E949A390E9463050E943B3853
:103AB00006000E946F3A0E945E390E94A1390E945E
:103AC000DA1C0E946F3A0E9454390E9463050E94DA
:103AD0003B3807000E946F3A0E945E390E94A1396C
:103AE0000E94E01C0E946F3A0E9454390E9448389C
:103AF000F01C0895C839065057525F5550000E9477
:103B00003B384F000E943B3810000E9440040E9446
:103B10003B38FE000E943B3803000E944004089599
:103B2000F63A085057525F444F574E000E943B38B8
:103B300080000E943B3810000E9440040E94130540
:103B40000E943B3803000E9440040895223B085322
:103B5000454E445F4D5347000E947F1D0E94F43C38
:103B60000E940E3D0C54726E61736D697474696EBF
:103B700067000E943B38A2000E947F390E9465388E
:103B8000B21E0E9471390E94793A0E943B38A2000D
:103B90000E946F3A0E947B160E946F3A0E945E3923
:103BA0000E949A390E943B3803000E94A43A0E9466
:103BB0005B38091E0E94D41C0E943B3803000E94FF
:103BC0006F3A0E945E390E943B381F000E944004F9
:103BD0000E94DA1C0E943B3803000E946F3A0E9448
:103BE0005E390E943B3820000E9440040E94E01C85
:103BF0000E943B3803000E946F3A0E945E390E9487
:103C00003B3821000E9440040E9494390E9465388C
:103C1000AD1E0E949A390E943B3802000E94A43ACD
:103C20000E945B38421E0E94D41C0E943B38020056
:103C30000E946F3A0E945E390E943B381F000E942A
:103C400040040E94DA1C0E943B3802000E946F3A36
:103C50000E945E390E943B3820000E9440040E946E
:103C6000E01C0E943B3802000E946F3A0E945E39BD
:103C70000E943B3821000E9440040E9494390E9417
:103C80006538AD1E0E949A390E943B3801000E949F
:103C9000A43A0E945B387B1E0E94D41C0E943B38D1
:103CA00001000E946F3A0E945E390E943B381F005B
:103CB0000E9440040E94DA1C0E943B3801000E94CE
:103CC0006F3A0E945E390E943B3820000E944004F7
:103CD0000E94E01C0E943B3801000E946F3A0E9443
:103CE0005E390E943B3821000E9440040E949439B2
:103CF0000E946538AD1E0E943B3800000E94A43A25
:103D00000E945B38AD1E0E94D41C0E943B3800000C
:103D10000E946F3A0E945E390E943B381F000E9449
:103D200040040E94DA1C0E943B3800000E946F3A57
:103D30000E945E390E943B3820000E9440040E948D
:103D4000E01C0E943B3800000E946F3A0E945E39DE
:103D50000E943B3821000E9440040E943B38000032
:103D60000E94971C0E944838C11D0E94961D0E9407
:103D70003B3800000E94AC1C08954E3B04444F4564
:103D800053000E9465390E942E3A0E948D380E948D
:103D9000D93D0E940D010E94DD3808957C3D0556F5
:103DA000414C55450E9444030E94283A0E948D3898
:103DB0000E9412010E9483380E94C11E0E94653930
:103DC0000E94333A0E9494380E948D3808959E3D97
:103DD000045B544F5D000E94E73E0E943B380400A4
:103DE0000E946F3A0E9494380E9483380895D03D13
:103DF00002544F000E9465390E949A390E940301C3
:103E00000E94333A0E9494380E940D010E94333A76
:103E10000E9494380E94A1390E940D010E947F39AE
:103E20000E9483380895F03D06544152474554009E
:103E30000E94DE1E6402283E05464C4153480E9403
:103E40003B3800000E94FA1E0E94181F0895383E59
:103E50000352414D0E943B3801000E94FA1E0E940D
:103E6000181F0895503E07534D41525443400E943D
:103E7000181F0E945B38411F0E945E390E946538FE
:103E8000431F0E94AC380895663E063F4C454741AB
:103E90004C000E943B38FF000E94BB390E943B3817
:103EA00020000E94AB390E9416010E94AB390E948B
:103EB0003B387F000E9416010E94C3390E945B3884
:103EC000661F0E9494390E943B382E0008958A3E56
:103ED000092E4C4F434154494F4E0E94181F0E94D7
:103EE0005B387A1F0E940E3D052072616D200E9492
:103EF0006538801F0E940E3D0720666C6173682044
:103F00000895D03E062E414C504841000E947F3912
:103F10000E946538951F0E949A390E94371F0E949F
:103F2000491F0E9425380E9403010E9448388B1FB8
:103F30000E9494390895043F072E4D454D4F525924
:103F40000E947F390E946538B01F0E949A390E94F2
:103F5000371F0E943B3803000E941E3D0E94030150
:103F60000E944838A51F0E9494390895383F0444A0
:103F7000554D50000E946D1F0E94F43C0E94F03984
:103F80000E948D380E947F390E944E3C0E943B382F
:103F900010000E942E3B0E947F390E946538F01F5E
:103FA0000E949A390E943B3805000E941E3D0E94E3
:103FB000C83C0E949A390E943B3810000E94A01F02
:103FC0000E94C83C0E949A390E943B3810000E940F
:103FD000861F0E94F43C0E943B3810000E946F3AFA
:103FE0000E944838D01F0E9494390E9465390E946F
:103FF000F0390E94833808956E3F08575350525F3E
:1040000043414C000E94F7140E940A160E94E81CCB
:104010000E94AC1D0895FA3F0338304D0E943B3892
:1040200050790E943B3836000E943B3800000E94C5
:104030001A050E948B050E9402200895184003343F
:10404000304D0E943B38006C0E943B386B000E9450
:104050003B3800000E941A050E948B050E94022036
:1040600008953E400333304D0E943B38C4B90E944E
:104070003B389A000E943B3800000E941A050E94BB
:104080008B050E940220089564400332304D0E9447
:104090003B38681A0E943B38D7000E943B3800002A
:1040A0000E941A050E948B050E94022008958A40F2
:1040B0000331304D0E943B38302B0E943B38AD011C
:1040C0000E943B3800000E941A050E948B050E9446
:1040D00002200895B0400842414E445F4A4D5000CE
:1040E0000E947F390E9465387F200E940E200E9426
:1040F00021200E9434200E9447200E945A200E94C2
:10410000483875200895D640093342414E445F4AED
:104110004D500E947F390E94653894200E944720AC
:104120000E9434200E9421200E9448388E20089549
:1041300008410B575350525F5452414E32300E9447
:104140007F390E946538A6200E9447200E94483887
:10415000A420089532410B575350525F5452414EA0
:1041600034300E947F390E946538B8200E94212097
:104170000E944838B62008950E940E3D322A2A2A0D
:104180002A2A2A2A2A2A2A2A2A2A2A2A2A2A2A2A8F
:10419000204C6F61642046696E6973686564202AEB
:1041A0002A2A2A2A2A2A2A2A2A2A2A2A2A2A2A0099
:1041B000564107424344324845580E943B38040068
:1041C0000E947F390E9465380A210E949A390E9414
:1041D0003B380F000E9471390E94793A0E943B38A7
:1041E00004000E946F3A0E943B3804000E944D3B3D
:1041F0000E949A390E94543A0E94A1390E94C60531
:104200000E94543A0E94BB390E94A1390E94D605EF
:104210000E94A1390E944838E5200E9494390E94EA
:104220003B380A000E943B380A000E943B380A00D3
:104230000E944D3B0E944D3B0E944D3B0E943B38EB
:1042400000000E946F3A0E94A1390E943B380A0088
:104250000E943B380A000E944D3B0E944D3B0E9449
:104260006F3A0E94A1390E943B380A000E944D3BE0
:104270000E946F3A0E94A1390E946F3A0895B2419C
:1042800007484558324243440E949A390E943B38BD
:10429000E8030E942E3B0E949A390E94543A0E94E1
:1042A000A1390E943B38E8030E944D3B0E94933A9B
:1042B0000E949A390E943B3864000E942E3B0E9463
:1042C0009A390E94543A0E94A1390E943B386400F6
:1042D0000E944D3B0E94933A0E949A390E943B38BB
:1042E0000A000E942E3B0E949A390E94543A0E9472
:1042F000A1390E943B380A000E944D3B0E94933A2C
:104300000E943B3800000E943B3804000E947F3925
:104310000E9465389F210E94A1390E9471390E9434
:10432000793A0E943B3804000E946F3A0E943B3861
:1043300004000E944D3B0E94C6050E946F3A0E94F5
:1043400048388B210895804207434F4E54455354BB
:104350000E941A030E946201FFFFFFFFFFFFFFFFA1
:10436000FFFFFFFFFFFFFFFFFFFFFFFFFFFFFFFF5D
:10437000FFFFFFFFFFFFFFFFFFFFFFFFFFFFFFFF4D
:10438000FFFFFFFFFFFFFFFFFFFFFFFFFFFFFFFF3D
:10439000FFFFFFFFFFFFFFFFFFFFFFFFFFFFFFFF2D
:10700000A4B6BB242224332424BEA0EFADBFB7E036
:10701000BEBFC0EFD6E00C94773F0000043F4B4565
:1070200059009A938A9388279927C101A091C0009B
:10703000A7FF08958091C6009A938A938FEF9FEFE0
:1070400008951C7004454D495400A091C000A5FF4F
:10705000FCCF8093C600899199910895A3E3A093F2
:10706000C400AA27A093C500A8E1A093C100A6E090
:10707000A093C20008959A938A93FF91EF91EE0F27
:10708000FF1F85919591F795E795EF93FF930895ED
:10709000FF91EF91BF91AF91119724F43196EF9347
:1070A000FF930895AF93BF93EE0FFF1FA591B59186
:1070B000AF93BF930895FF91EF91892B8991999197
:1070C00031F03196EF93FF930895FF91EF91EE0F1A
:1070D000FF1FA591B591AF93BF93089544700745E5
:1070E000584543555445959587958F939F9389911E
:1070F00099910895DE70044558495400BF91AF91AD
:107100000895F6700121FC01899199919183808302
:1071100089919991089504710140FC0181919191A7
:107120000895187102494000A6DF1C0135D0C3DF65
:10713000A238A1DF1E0130D0BEDFA538FC01859149
:107140009591089598DF1C0102C095DF1E012BD098
:10715000E4CF2471034943408EDF1C011DD0ABDF17
:10716000BA3889DF1E0118D0A6DFBD38FC01992787
:107170008491089580DF1C0102C07DDF1E0113D0C1
:107180009DC079DF0100F7D096DFC93874DF800831
:10719000089571DF00080895C0DFDDD0FCD06BDFFB
:1071A000807FE9D00895B9DFECDFCBD064DF7F00CA
:1071B000E2D0F1C05471024921005DDF1C01ECDF17
:1071C0007ADFF33858DF1E01E7DF75DFF23853DF6F
:1071D0001E01A3DF50DF0080CED06DDFF03804D079
:1071E00010D019D027D032C046DF1E0196DFA2D0C2
:1071F00042DF807FC0D09ED091D6A3D0C2DFA1D085
:1072000098C639DF1E0189DFBCDFA5D034DF807F5F
:10721000B2D097D0A6C68ED02EDF807FACD02BDF29
:107220001E018FD098D079DF26DF0100A4D0ABD02B
:1072300088D069CF20DF1E0170DF1DDF1C016DDFEC
:107240001ADF1E0160DF17DF1C015DCF14DF7E0037
:1072500092D011DF1C0161DF94DF95D054DF0BDF8A
:107260001C0168D05ADF07DF00808DD06AD04BCF79
:10727000B67105464C55534803D0DCDF01D0DACF58
:10728000FADE1E014ADF56D0F6DE008074D013DF2E
:107290005039F1DEFF7F6FD0EEDE1E0134DFA4CF68
:1072A00043C0727202432100FC018991999180834D
:1072B000899199910895A47202434000FC01992795
:1072C00080810895B87242523E009A938A93BF918A
:1072D000AF919F918F91AF93BF930895C672025261
:1072E00040009A938A93BF91AF919F918F918F9312
:1072F0009F93AF93BF930895DE72423E5200BF91B9
:10730000AF918F939F93AF93BF9389919991089574
:107310009A938A93CE010895EC01899199910895E9
:10732000FA720444524F5000899199910895227342
:10733000034455509A938A930895307304535741E8
:107340005000DC0189919991BA93AA9308953C73F6
:10735000044F564552009A938A938A819B810895DF
:10736000507302303C009923C1010CF40197089539
:10737000627303414E44A991B9918A239B230895D6
:107380007273024F5200A991B9918A2B9B2B0895D9
:10739000827303584F52A991B9918A279B27089568
:1073A000927303554D2BA991B9918A0F9B1F9A9304
:1073B0008A9399278827881F08959A938A93FF9123
:1073C000EF91EE0FFF1F859195910895A273052708
:1073D000424F4F54F2DF0001CE7304424153450047
:1073E000ECDF0401DA7303544D50E7DF0601E67366
:1073F000045350414E00E1DF0801F073033E494E53
:10740000DCDF0A01FC73042354494200D6DF0C017F
:107410000674042754494200D0DF0E011274052778
:107420004556414CCADF10011E7403484C44C5DF69
:1074300012012A7407434F4E54455854BEDF1401BD
:10744000347402435000B9DF160142740244500004
:10745000B4DF18014C74044C41535400AEDF1A01E0
:10746000567402322A00880F991F089562740232FE
:107470002F0095958795089501968E7F08956E74D7
:1074800002424C009A938A9380E29927089580746F
:10749000043F44555000082F092B11F09A938A930A
:1074A0000895907403524F548C0129913991899118
:1074B00099913A932A931A930A930895A4740532E2
:1074C00044524F5089919991899199910895BE7430
:1074D0000432445550003FDF3ECFD074012B099158
:1074E0001991800F911F0895DC7406494E5645523C
:1074F0005400809590950895EA74064E454741548E
:107500004500F7DF01960895FA7407444E45474158
:107510005445EFDFF4DEEDDFAEDD010044DFD5DE04
:10752000DECF0A75012D09911991081B190BC801AD
:107530000895247503414253FDDE15DFBCDDA13AF9
:10754000E0CF08953475013D26DFB5DDAA3A93DD1D
:107550000000089590DDFFFF0895467502553C0038
:10756000BADF19DF00DFA7DDB83AEBDEDDDEFBCEE8
:10757000DADFF9CE5C75013CAEDF0DDFF4DE9BDDBA
:10758000C33AD2DEF0CECFDFEECE7675034D415852
:10759000A2DFF2DF90DDCD3AD4DEC6CE8C75034D8E
:1075A000494E99DFCEDEE8DF86DDD73ACADEBCCEB3
:1075B0009E750657495448494E00CDDEB4DF9FDE24
:1075C000B2DF83DECDCFB27506554D2F4D4F44004F
:1075D0007C01299139910991199140E15527000FBA
:1075E000111F221F331F551F2E153F05520518F07E
:1075F00003952E193F094A9589F73A932A93C801B2
:107600000895C875054D2F4D4F4494DEACDE92DED3
:1076100076DE51DD0F3B75DF72DE7BDF56DE6FDE1F
:1076200089DEA1DE48DD163B5CDE59DF4EDED0DFB1
:107630004CDE41DD1E3B85DE64DF83DE089504768B
:10764000042F4D4F440087DE8EDE7BDEDECF40769A
:10765000034D4F44F8DF68CE5076012FF4DF71DE22
:1076600063CE5A7603554D2A8C0189919991809F5A
:10767000F00122273327909FF00D211D331D819F9C
:10768000F00D211D331D919F200D311DCF019A93C7
:107690008A93C90108956476012A04D045CE98766C
:1076A000024D2A0018DF77DE5EDE29DE45DF49DE87
:1076B00043DFDADF0ADEFFDC5E3B2BDF0895A076D6
:1076C000052A2F4D4F441BDEEDDFFFDD9ECFC07638
:1076D000022A2F00F8DF35DE27CE2CDED3DECBDC0E
:1076E0007F006BDFE8DC753B08951EDEC4DC5F00C5
:1076F0000895D0760544455054480ADEBCDCEE06B9
:1077000020DE11DFB6CEF476045049434B000196DB
:10771000AADEFEDDE4DE01CD0877022B210011DEBA
:107720001ADEFBDCDCDE0DDEEECC1A7705434F55AE
:107730004E54FC010191CF019A938A93802F99278F
:1077400008952C770649434F554E5400F3DD0196BA
:10775000F8DD02CD447704484552450079DEDDCCA2
:10776000567703504144FADF86DC4000B8CE62779A
:10777000035449424BDE0296D0CC707708404558FE
:10778000454355544500C9DC86DE95DCC83BABDC7F
:1077900008957C7705434D4F5645B1DD06C0AFDDFA
:1077A000C8DF9FDD81DD91DD019672DCCF3B8ACEA3
:1077B000C1DD61DC61005FDC7B00FFDE7CDCE33B84
:1077C0005ADC5F00D8DD08959ADD07C098DDB1DF8F
:1077D000EFDF87DD69DD79DD01965ADCE63B72CEAD
:1077E00094770446494C4C00ACDD89DDAADD03C02A
:1077F00072DE5ADD01964CDCF83B64CE3CDC0900BD
:10780000AADDBADE38DC0700B6DD69DE34DC300024
:1078100066CE31DC000095DDDBDE93DDEFCFE27775
:10782000023C2300A0DF03DE6ECC207804484F4CDE
:107830004400FDDD72DC01977DDDF9DD64DC34CDD3
:107840002C780123CDDD69DCE4DFF3CF427802231D
:107850005300F8DF6FDD2FDC2E3CFBCF08954E7810
:10786000045349474E007FDD26DC393C04DC2D0003
:10787000E0DF0895607802233E0056DDD8DD4DDC60
:1078800072DF69DD50CE56DD3ADD56DECBDFE1DF5B
:107890001CDDE9DFF2CF767803484558ECDB1000B9
:1078A0009FDD31CC987807444543494D414CE3DB9B
:1078B0000A0096DD28CC23DDDEDB300034DEDBDBA6
:1078C000090049DD59DEF7DB6D3CD5DB07002BDE17
:1078D00031DDD1DB0A0050DE56DD2CDDF6DC40CE9A
:1078E000A678074E554D4245523F7ADD16DC07DD3E
:1078F000C2DB000030DD1DDF2EDDE0DCBCDB240060
:1079000023DED9DB883CCADF1CDD01961ADD019736
:1079100022DDD4DCB0DB2D0017DEF1DC12DDE1DC92
:1079200002DE0FDDDEDCDBDDB6DDC5DBB83C01975A
:10793000E6DC00DDE4DCC2DC53DDEFDBBCDFBBDB1F
:10794000B13CFFDC4DDDE9DBA8DEC9DDBEDC019624
:107950009FDB993CE9DCC5DCAEDBAF3CD2DDF1DC82
:1079600006C0B3DCB2DCAEDDADDD85DB0000E2DC01
:10797000ACDCA8DDAADC34DDC6CBE278034B45598C
:1079800050DB99DBC03C08957C7905535041434559
:1079900079DD5BCBD6DCB3DC02C0CCDC56DB78DB3C
:1079A000CD3CC2CC8A7906535041434553006ADD31
:1079B000F1CFA679045459504500A1DC03C0B9DECB
:1079C0008CDE43DB65DBDF3CAFCCB4790549545931
:1079D000504595DC03C0BADE80DE37DB59DBEB3C7B
:1079E000A3CCCC790243520046DB0D002EDB43DBF7
:1079F0000A002BCB6ADC69DC9DDC9CDCFC01EE0F11
:107A0000FF1F85919591992734DD69DD019677DC1B
:107A100098DC75DC28DD0895EDDF0895EBDF96DE58
:107A2000D8CFE479022E52006ADC2DDF4EDC93DCE5
:107A30007ADDBDDFC2CF247A03552E5260DCF2DE40
:107A400008DF1BDF42DC87DC6EDDB1DFB6CF387AC2
:107A500002552E00E7DEFDDE10DF9ADFAECF507A52
:107A6000012EBEDC5ADB07DB0A0095DC24DB393D46
:107A7000F1CF09DF8DDFA1CF607A013F4EDBF1CF7F
:107A8000B4DC41DB68DC3BDC55DC15DB823D019777
:107A9000ACDC14DCF7DC58DD0EDB613D30DCF2DC05
:107AA0005ADC0CDC40DD5FDC24DD05DB603D01964B
:107AB000EFDA4F3D0ADC38DCDEDA00003BDC08950B
:107AC00004DC49DC3EDC1BDC90DCF8DB44DCF6DB70
:107AD0002ADD8BDCF3DBD6DC37DDEDDA703D43DC11
:107AE000EADA783D0196D4DA643D24DC08DC05C08E
:107AF000ECDB1ADC1FDC019602DC2DDC14DDE5DB9F
:107B0000E4DB11CD28DCE1DB0ECDF9DB33DE78DC04
:107B100004DBE5DC7BDC01DB73DCFFDA04DDD5DBD9
:107B2000AFDF6EDCFCCD7A7A822E2800A4DA290041
:107B3000ECDF43CF287B81289EDA2900E6DFC2CC28
:107B4000367B815C5C0097DA0D00DFDFBBCC427BCB
:107B500004434841520096DCD8DFE6DBAFCB92DC31
:107B6000D4DF89DA1F001DDDF9DDB5DC9DDBB3DC78
:107B7000B6DC019680DA0000E4DB96DB0196E1DBFF
:107B800023DEECCD507B04574F524400BEDFE6DDD0
:107B9000A2DC8ADBA0DCA3DC01966DDA0000D1DB7D
:107BA00083DB0196CEDBF9DDD9CD867B054E414DD9
:107BB000453ECCDD60DA1F00DEDB91DC5DCC59DCBC
:107BC0009EDB10C0C8DB8DDB4EDC89DCA6DAC3DBB4
:107BD00088DB49DC84DCA8DAA6DC5DDC6CDAF23D0B
:107BE00074DBA2CB55DAE23D46DA00000895A9DB4A
:107BF000A1DB64DBFADB87DA9DDB8FDA80DB0296C0
:107C0000A0DB98DB58DA163E95DB8EDA34DA3FFFDC
:107C1000B2DB67DBC0DB4FDA113E02962CDAFFFFE6
:107C200004C00296E2DB79DACADF05C04EDB7CDBFA
:107C300088DB029786CB3FDA203E049775DAE1CFE6
:107C400044DB72DB7EDB70DB029774DBB2DF79CB67
:107C5000F5DB63DACCCF53DB7EDB37DB72DB7BDB40
:107C60009ADB29DA3C3E07DA0800EFD901970ADCF3
:107C7000ECD901DA0800E9D908955CDBE6D96BDBC1
:107C800013DB0196089556DB0D9715DA4D3E0897E4
:107C900012DA4C3EF7DBF1CFDECF46DB52DB44DBC2
:107CA00049CB59DB1CDC57DB16DC75DB04DA653E9F
:107CB00067DE40DBE7DB37DCDED95F0051DCFBD978
:107CC000633EDBDF01C0DFDFEFCF2EDB44DB2BCCFD
:107CD000AC7B0645585045435400E3DF8CDB13DA98
:107CE00023CBD27C05515545525944DDC4D95000AF
:107CF000D8DF8CDB08DA18DBBED9000081DB03CAD1
:107D000047DE17DD5ADEB7D93F009FD96DDEB4DA02
:107D1000C0EFD6E04EC0CFD9923E6CDE17DD59DE03
:107D2000F5DF47C067DE00CB93DFB5DBC4D9A63EE5
:107D3000FBD9A1D940001FDBEEDF0D20636F6D7012
:107D4000696C65206F6E6C79CED90895CEDDB3D99C
:107D5000AA3E0895D5CFE47C815B8DD9287D62DB76
:107D6000D2C989D9287D5EDBD8D9EEDBA4D9BB3E48
:107D700055DE026F6B0038CEC0DCF5DACCDF0A20AE
:107D8000756E646572666C6F77000895587D044562
:107D900056414C00E4DECEDA91DA8DD9D33E42DB97
:107DA000F2DCEADFF7CFC0DADCCF8E7D0451554933
:107DB0005400A0EFADBFB7E0BEBF5DD900072CDB1C
:107DC000A2D9CBDF92DFE6DFFDCFAC7D0127C7DE96
:107DD0003FDF71D9EC3E089593CFCC7D0444554DDF
:107DE000500049D907008BDAFFDDA4DA44D9050039
:107DF00025DECEDD40D90F0082DA9BDC3CD90300C2
:107E00001DDE46D9FD3EC4DD95DA35D910008BDB89
:107E100032D91000D2DD3CD9F43E86CADC7D05495A
:107E200044554D5028D907006ADADEDD83DA23D9BC
:107E3000050004DEADDD1FD90F0061DA87DC1BD938
:107E40000300FCDD25D91E3FA3DD74DA14D9100030
:107E50006ADB11D91000BDDD1BD9153F65CA1E7E36
:107E6000022E53004ADC4BDA03C03BDA50DCF9DD6A
:107E70000FD9353FD3DD04203C73700008953FDAFD
:107E8000DDDA4BD957DA17D94F3F54DA92DE29DAC7
:107E900082DA11D94F3F029747D917D9423F15DAF5
:107EA00043CA54DCE8D81F0066DA93CD607E0557DC
:107EB0004F52445399DDC2DA30D9EDDAFCD8673F2E
:107EC00039DA66DDEEDF02972FD9FFD85D3F0895DE
:107ED0008BDDA4DD0F33323865466F72746820760F
:107EE000322E323081CDAE7E04434F4C4400B6D8A2
:107EF000C2D800011FDA35D0BED81E010ED981D9F3
:107F000099D9B9D81E0109D97CD994D9DBDA62DABA
:107F10003ADC4FCFE87E054552415345FC0189913B
:107F2000999143E02AD041E128C0167F0557524974
:107F30005445FC0189919991DC018991999160E8FE
:107F40000D901D9041E019D032966250C9F7E0586B
:107F5000F04045E012D041E110C02C7F0452454171
:107F60004400DC0189919991FC018991999160E823
:107F700005900D926150E1F7089517B710FDFDCF00
:107F800047BFE8950895FFFFFFFFFFFFFFFFFFFFDB
:107F9000FFFFFFFFFFFFFFFFFFFFFFFFFFFFFFFFF1
:107FA000FFFFFFFFFFFFFFFFFFFFFFFFFFFFFFFFE1
:107FB000FFFFFFFFFFFFFFFFFFFFFFFFFFFFFFFFD1
:107FC000FFFFFFFFFFFFFFFFFFFFFFFFFFFFFFFFC1
:107FD000FFFFFFFFFFFFFFFFFFFFFFFFFFFFFFFFB1
:107FE000FFFFFFFFFFFFFFFFFFFFFFFFFFFFFFFFA1
:107FF000FFFFFFFFFFFFFFFFFFFFFFFFFFFFFFFF91
:00000001FF
